:02000000862850
:100008002700161F142827009601200095012000BC
:100018009717031420008D1E0310F00CF10C090033
:10002800200097132000950120009012F10DF00D8B
:10003800F10DF00D7008F03C03198128F03C7008B0
:100048002221FF3C03198128FF3CF3008600003081
:100058008A007308EB20F40074080E308500903095
:1000680084007208F03C03196E28751C4228F51CA0
:100078004D28751D5828F51D632809003C00740E8D
:100088000F39103EA800043080000130810075143B
:100098007C283C00740E0F39103EA9000530800002
:1000A80002308100F5147C283C00740E0F39103E94
:1000B800AA00063080000330810075157C283C00BA
:1000C800740E0F39103EAB000730800004308100F9
:1000D800F5157C287308860074080F39142121004F
:1000E8008C04010889031B210F39F505810181283A
:1000F80074080F391B2121008C057008F200F001EB
:10010800F1010900220000308C0023008C0121003D
:10011800FF308C0022008D0123008D0121006F30FB
:100128008D0022008E0123008E012100FF308E00F9
:100138002000970120009801981218179813181496
:100148009814181198112000A030960020009501ED
:100158009713270015172100101690160B178B17E9
:100168003E0090019A01A401AE013E0000309200C9
:1001780001309C000230A6000330B0003E0002307F
:100188009600970198019901A000A101A201A3017D
:10019800AA00AB01AC01AD01B400B501B601B701CD
:1001A80091019B01A501AF01813090009A00A40044
:1001B800AE00F501F201F001F1012030870086015F
:1001C8002830F60000301E00F60BE728EA280B005E
:1001D8000034013402340434053410341134123438
:1001E8001434153420342134223424342534303462
:1001F8003134323434343534403441344234443484
:1002080045345034513452345434553460346134A4
:1002180062346434653470347134723474347534CF
:100228000B000134023404340834103420340B0039
:10023800FE34FD34FB34F734EF34DF340B00FF3485
:10024800FF34FF34FF34FF34FF34FF34FF34FF340E
:10025800FF34FF34FF34FF34FF34FF34FF34FF34FE
:10026800FF340034FF34FF340A340F34FF34FF34D2
:10027800FF340134063405340B341034FF34FF34B2
:100288000334023407340C3412341134FF34FF348D
:100298002334043408340E340D341334FF34FF345B
:1002A80026342734223409341D341834FF34FF34FB
:1002B800FF34253421341C3417341634FF34FF340A
:1002C800FF3420341B341A3414341534FF34FF340B
:1002D800FF34FF341F34FF341934FF34FF34FF3444
:1002E800FF34FF34FF34FF34FF34FF34FF34FF346E
:1002F80024341E34FF34FF34FF34FF34FF34FF341A
:10030800FF34FF34FF34FF34FF34FF34FF34FF344D
:10031800FF34FF34FF34FF34FF34FF34FF34FF343D
:10032800FF34FF34FF34FF34FF34FF34FF34FF342D
:10033800FF34FF34FF34FF34FF34FF34FF34FF341D
:10034800FF34FF34FF34FF34FF34FF34FF34FF340D
:10035800FF34FF34FF34FF34FF34FF34FF34FF34FD
:10036800FF34FF34FF34FF34FF34FF34FF34FF34ED
:10037800FF34FF34FF34FF34FF34FF34FF34FF34DD
:10038800FF34FF34FF34FF34FF34FF34FF34FF34CD
:10039800FF34FF34FF34FF34FF34FF34FF34FF34BD
:1003A800FF34FF34FF34FF34FF34FF34FF34FF34AD
:1003B800FF34FF34FF34FF34FF34FF34FF34FF349D
:1003C800FF34FF34FF34FF34FF34FF34FF34FF348D
:1003D800FF34FF34FF34FF34FF34FF34FF34FF347D
:1003E800FF34FF34FF34FF34FF34FF34FF34FF346D
:1003F800FF34FF34FF34FF34FF34FF34FF34FF345D
:10040800FF34FF34FF34FF34FF34FF34FF34FF344C
:10041800FF34FF34FF34FF34FF34FF34FF34FF343C
:10042800FF34FF34FF34FF34FF34FF34FF34FF342C
:0E043800FF34FF34FF34FF34FF34FF34FF3451
:020000040001F9
:08000E008C1F3337FF3FFF3F59
:00000001FF
